{
  "_format": "hh-sol-artifact-1",
  "contractName": "CTF",
  "sourceName": "contracts/CTF.sol",
  "abi": [
    {
      "inputs": [],
      "stateMutability": "nonpayable",
      "type": "constructor"
    },
    {
      "anonymous": false,
      "inputs": [
        {
          "indexed": false,
          "internalType": "address",
          "name": "previousHolder",
          "type": "address"
        },
        {
          "indexed": false,
          "internalType": "address",
          "name": "currentHolder",
          "type": "address"
        }
      ],
      "name": "FlagCaptured",
      "type": "event"
    },
    {
      "inputs": [],
      "name": "captureFlag",
      "outputs": [],
      "stateMutability": "nonpayable",
      "type": "function"
    },
    {
      "inputs": [],
      "name": "flagHolder",
      "outputs": [
        {
          "internalType": "address",
          "name": "",
          "type": "address"
        }
      ],
      "stateMutability": "view",
      "type": "function"
    }
  ],
  "bytecode": "0x608060405234801561001057600080fd5b50600080546001600160a01b0319163390811782556040805192835260208301919091527facc718a11fbc93a22905740808767480f9efd07b1c0b0128095790cd1440048d910160405180910390a16101668061006e6000396000f3fe608060405234801561001057600080fd5b50600436106100365760003560e01c80632ded77161461003b578063d481972f1461006a575b600080fd5b60005461004e906001600160a01b031681565b6040516001600160a01b03909116815260200160405180910390f35b610072610074565b005b6000546001600160a01b03163314156100d35760405162461bcd60e51b815260206004820152601b60248201527f596f752063757272656e746c7920686f6c642074686520666c61670000000000604482015260640160405180910390fd5b60008054336001600160a01b031982168117909255604080516001600160a01b0390921680835260208301939093527facc718a11fbc93a22905740808767480f9efd07b1c0b0128095790cd1440048d910160405180910390a15056fea26469706673582212204d3813b46c0ad01a0ebaa6d9b5423f65bece140c4c7e731b052ff3ef12c251d864736f6c63430008090033",
  "linkReferences": {},
  "deployedLinkReferences": {}
}